:0300000002000EED
:0C000E00787FE4F6D8FD758128020055CB
:1001F6001011C0F9A4B0999282F880908883C6A1A4
:0B020600868E040DFFFFFFFF010800C3
:0F022A00E5A0541F44A0F5A07580AF53A01F227C
:0D023900EFD3940040077E72DEFE1F80F3BD
:010246002295
:10021200538E7F5389F0438901758A9C758CFFC286
:080222008DD28CD2AFD2A922CB
:10014600E5A0541F44E0F5A07580FF53A01F7F056E
:10015600120239E5A0541F44C0F5A0AF087480A868
:1001660007088002C313D8FCF58075A01FE5A054CC
:100176001F44E0F5A0740D2508F8E6F58053A01F8E
:0D018600E508C394035003050822E4F508C2
:010193002249
:04009A008E238F24FE
:10009E00E4FBAE23AF247C007D0A1200F174252B05
:1000AE00F8A605AE23AF247C007D0A1200F18E2344
:1000BE008F240BBB04DC7B0374252BF8E6700874CD
:1000CE000D2BF876FFDBF1C3EB6480948040137444
:1000DE00252BF8E62411F8E6FF740D2BF8A6071B66
:0200EE0080E5AB
:0100F00022ED
:1001940012022A120212E50C450B60FAE4F50BF583
:1001A4000CC3E522940FE521942750130522E52280
:1001B40070020521FFAE2112009A12014680D7E495
:0601C400F521F52280D0B8
:03000B000201CA25
:1001CA00C0E0C0D0758A9C758CFF050AE50A7002EA
:1001DA000509D39464E5099400400C750900750A71
:0C01EA0000750B00750C01D0D0D0E03285
:10001A00020194E493A3F8E493A34003F68001F267
:10002A0008DFF48029E493A3F85407240CC8C333E7
:10003A00C4540F4420C8834004F456800146F6DFB6
:10004A00E4800B01020408102040809001F6E47E4F
:10005A00019360BCA3FF543F30E509541FFEE493AB
:10006A00A360010ECF54C025E060A840B8E493A372
:10007A00FAE493A3F8E493A3C8C582C8CAC583CA9D
:10008A00F0A3C8C582C8CAC583CADFE9DEE780BE55
:0102110000EC
:1000F100BC000BBE0029EF8DF084FFADF022E4CCF3
:10010100F875F008EF2FFFEE33FEEC33FCEE9DECBB
:10011100984005FCEE9DFE0FD5F0E9E4CEFD22ED01
:10012100F8F5F0EE8420D21CFEADF075F008EF2F4B
:10013100FFED33FD4007985006D5F0F222C398FD3C
:050141000FD5F0EA22D9
:00000001FF
