:0300000002010EEC
:0C010E00787FE4F6D8FD758127020155CA
:10026000100CC0F9A4B0999282F880908883C6A13E
:08027000868E041C8040201062
:0F02A800E5A0541F44A0F5A07580AF53A01F22FE
:09029100F8E6F58053A01F7F0A76
:0D029A00EFD3940040077E72DEFE1F80F35C
:0102A7002234
:04000E00AB07AA068C
:100012007C037DE81201AC8E228F237C037DE8AF46
:1000220003AE021201AC8C838D827D647C00AF82B0
:10003200AE831201AC8E248F257D647C00AF82AE2C
:10004200831201AC7E007F0ACFCDCFCECCCE12017F
:10005200AC8E268F27AE24AF257C007D6412019AD8
:100062008E838F82AE22AF237C037DE812019AEF4A
:100072002582F582EE3583F583AE26AF277C007D9F
:100082000A12019AEF2582FFEE3583FEC3EB9FFF32
:10009200E5A0541F44C0F5A0851C8053A01FE5A015
:1000A200541F44E0F5A0740C2F120291E5A0541FD6
:1000B20044C0F5A0851D8053A01FE5A0541F44E055
:1000C200F5A0740C2527120291E5A0541F44C0F537
:1000D200A0851E8053A01FE5A0541F44E0F5A07424
:1000E2000C2525120291E5A0541F44C0F5A0851FDE
:1000F2008053A01FE5A0541F44E0F5A0740C2523F3
:0C010200F8E6F58053A01F7F0A02029A65
:10027900538E7F5389F0438901758A9C758CFFC21F
:080289008DD28CD2AFD2A92264
:100201001202A8120279E50B450A60FAE4F50AF533
:100211000BC3E521940FE520942750100521E5211A
:1002210070020520FFAE2012000E80DAE4F520F501
:030231002180D356
:03000B00020234BA
:10023400C0E0C0D0758A9C758CFF0509E509700281
:100244000508D39464E5089400400C75080075090A
:0C02540000750A00750B01D0D0D0E0321C
:10011A00020201E493A3F8E493A34003F68001F2F8
:10012A0008DFF48029E493A3F85407240CC8C333E6
:10013A00C4540F4420C8834004F456800146F6DFB5
:10014A00E4800B0102040810204080900260E47EE3
:10015A00019360BCA3FF543F30E509541FFEE493AA
:10016A00A360010ECF54C025E060A840B8E493A371
:10017A00FAE493A3F8E493A3C8C582C8CAC583CA9C
:10018A00F0A3C8C582C8CAC583CADFE9DEE780BE54
:010278000085
:10019A00EF8DF0A4A8F0CF8CF0A428CE8DF0A42E79
:0201AA00FE2233
:1001AC00BC000BBE0029EF8DF084FFADF022E4CC37
:1001BC00F875F008EF2FFFEE33FEEC33FCEE9DEC00
:1001CC00984005FCEE9DFE0FD5F0E9E4CEFD22ED46
:1001DC00F8F5F0EE8420D21CFEADF075F008EF2F90
:1001EC00FFED33FD4007985006D5F0F222C398FD81
:0501FC000FD5F0EA221E
:00000001FF
